:100000000C942A000C9447000C9447000C94470071
:100010000C9447000C9447000C9447000C94470044
:100020000C9447000C9447000C9447000C94470034
:100030000C9447000C9415020C9447000C94470054
:100040000C9447000C9447000C9447000C947601E4
:100050000C94470011241FBECFE5D8E0DEBFCDBF12
:1000600010E0A0E6B0E0E2EFF4E002C005900D92EF
:10007000A43CB107D9F720E0A4ECB0E001C01D9288
:10008000A03DB207E1F70E9449000C9477020C945E
:10009000000000D0CDB7DEB720E040E060E875E2B8
:1000A00080E090E00E94D50141E060E87AE186E0DE
:1000B00090E00E94B000789480E690E00E940602F2
:1000C000198208E010E0F12C0A830E94EC008111F3
:1000D000FCCF40E0BE016F5F7F4F8A810E94C0006D
:1000E0000E94EC008111FCCF0E94EF00811561F0AD
:1000F000C8010E949A0182E890E00E94060287E807
:1001000090E00E940602F3948FE19EE40197F1F7DC
:1001100000C000000F5F1F4F08371105A9F687E9DF
:1001200090E00E9406028F2D90E00E949A0181EBE0
:1001300090E00E94060280E090E00F900F900895FA
:10014000811521F086B7806486BF089586B78F7BBE
:10015000FBCF81E08093CB0086B7816086BF089596
:1001600083E180B981B18C7F81B984E086BF411180
:100170000C94A90008958091CB008C5586BF0895FA
:100180009091C400911113C08093C6001092C500D5
:100190006093C9007093CA004093C8001092C700D2
:1001A00081E08093C4000E94BB0081E0089580E05C
:1001B00008958091CB008C5686BF0895880F862BBA
:1001C00083B98091CB008C5786BF089583B9809105
:1001D000CB008C5786BF08958091C400089580910C
:1001E000CC00089581B1887F803309F47CC068F524
:1001F000883181F050F4883009F45AC0803109F414
:1002000057C08091CB008C5762C0803209F46BC01C
:100210008832B9F781E08093CC009091C70080913B
:10022000C800981708F03FC08091C700E091C9004E
:10023000F091CA00E80FF11D80810E94E6008091D4
:10024000C7008F5F8093C7000895883409F44BC0BE
:1002500080F4883309F447C0803499F681E08093B4
:10026000CC008091C800813049F580E00E94A00058
:1002700028C0803531F681E08093CC008091C700A2
:10028000E091C900F091CA00E80FF11D83B18083AD
:100290008091C7008F5F8093C7009091C7008091C5
:1002A000C800981316C00E94D9001092C400089587
:1002B0006091C5008091C6000C94DE0086B7806412
:1002C00086BF9091CB0086B79C578074892B86BFE0
:1002D00008952091C7008091C8008150990B28177C
:1002E000190679F7C2CF1092CC00DDCF1F920F9282
:1002F0000FB60F9211242F933F934F935F936F93F9
:100300007F938F939F93AF93BF93EF93FF930E943D
:10031000F200FF91EF91BF91AF919F918F917F91EB
:100320006F915F914F913F912F910F900FBE0F9062
:100330001F9018951F93CF93DF9300D000D00F929A
:10034000CDB7DEB79C0110E0892B59F480E30F9004
:100350000F900F900F900F90DF91CF911F910C9401
:100360000202C9016AE070E00E944102FE0131967A
:10037000E10FF11D805D8083C9019B011F5F0A971A
:1003800080F7111109C00F900F900F900F900F90F0
:10039000DF91CF911F9108951150FE013196E10F29
:1003A000F11D80810E940202ECCFCF93DF9300D039
:1003B000CDB7DEB749832A839B01AC0184E0220FCD
:1003C000331F441F551F8A95D1F760E074E284EF14
:1003D00090E00E9455022150310929B9832F8F7076
:1003E00080BD9981929590732A8120FB882783F99B
:1003F000892B866880BD88E18AB90F900F90DF91C4
:10040000CF9108955D9BFECF8CB90895CF93DF9374
:10041000EC01892B31F4DF91CF91089521960E9450
:10042000020288818111FACFF6CF1F920F920FB688
:100430000F9211242F933F934F935F936F937F936A
:100440008F939F93AF93BF93EF93FF938CB1809360
:10045000CD00E091CE00F091CF00309709F00995E2
:10046000FF91EF91BF91AF919F918F917F916F918C
:100470005F914F913F912F910F900FBE0F901F9062
:100480001895AA1BBB1B51E107C0AA1FBB1FA617CB
:10049000B70710F0A61BB70B881F991F5A95A9F72D
:1004A00080959095BC01CD010895A1E21A2EAA1B5A
:1004B000BB1BFD010DC0AA1FBB1FEE1FFF1FA21714
:1004C000B307E407F50720F0A21BB30BE40BF50B11
:1004D000661F771F881F991F1A9469F7609570959A
:1004E000809590959B01AC01BD01CF010895F894D2
:0204F000FFCF3C
:1004F2000D0A2D2D2D205374617274696E67204987
:10050200324320427573205363616E202D2D2D0DD1
:100512000A002E2E2E200044455649434520464FC0
:10052200554E44210D0A002D2D2D205363616E205E
:10053200436F6D706C6574652E20466F756E642016
:1005420000206465766963652873292E202D2D2D80
:040552000D0A00008E
:00000001FF
