:100000000C942A000C943C000C943C000C943C0092
:100010000C943C000C943C000C943C000C943C0070
:100020000C943C000C943C000C943C000C943C0060
:100030000C943C000C943C000C943C000C943C0050
:100040000C943C000C943C000C943C000C942A0250
:100050000C943C0011241FBECFE5D8E0DEBFCDBF1D
:1000600020E0A0E6B0E001C01D92A936B207E1F79A
:100070000E94E9000C9477020C940000CF93DF9368
:1000800000D0CDB7DEB719828A830E94A301811107
:10009000FCCF42E0BE016F5F7F4F8CE30E9477018F
:1000A0000E94A3018111FCCF0F900F90DF91CF919F
:1000B00008958EEA0E943E0085ED0E943E0080E891
:1000C0000E943E0088EA0E943E008FE30E943E00AC
:1000D00083ED0E943E0080E00E943E0080E40E948A
:1000E0003E008DE80E943E0084E10E943E0080E2D6
:1000F0000E943E0080E00E943E0081EA0E943E0095
:1001000088EC0E943E008AED0E943E0082E10E943F
:100110003E0081E80E943E008FEC0E943E0089ED87
:100120000E943E0081EF0E943E008BED0E943E0047
:1001300080E40E943E0084EA0E943E0086EA0E941B
:100140003E008FEA0C943E001F93CF93DF93CDB710
:10015000DEB7C158D1090FB6F894DEBF0FBECDBFD0
:1001600080E4898340E850E06FEF70E0CE010296B2
:100170000E94700281E20E943E0080E00E943E00E8
:100180008FE70E943E0082E20E943E0080E00E94D3
:100190003E0087E00E943E0018E00E94A30181110A
:1001A000FCCF41E8BE016F5F7F4F8CE30E94770177
:1001B0000E94A3018111FCCF115079F7CF57DF4F77
:1001C0000FB6F894DEBF0FBECDBFDF91CF911F9168
:1001D000089541E060E87AE186E090E00E945801ED
:1001E00078940E9459000E94A400FFCF8F929F92A2
:1001F000AF92BF92CF92DF92EF92FF92CF934B01DB
:100200005C01C0E09FEFF92EEF2C67018C2F90E08E
:10021000A0E0B0E09C01AD01285F3F4F4F4F5F4F22
:10022000220F331F441F551F60E074E284EF0E94C9
:100230004E0282169306A406B506E8F4C901DA0157
:1002400088199909AA09BB098C159D05AE05BF053A
:10025000C8F4109790408040B9F4C0B981B18C7F48
:1002600081B9CF91FF90EF90DF90CF90BF90AF908A
:100270009F908F900895C401D501821B930BA40B0E
:10028000B50BE2CFC601D701CF5F6C017D01BECFB8
:10029000811521F086B7806486BF089586B78F7B6D
:1002A000FBCF81E08093670086B7816086BF0895A9
:1002B000CF93DF930F92CDB7DEB74983009770409D
:1002C000604011F00E94F60084E086BF89818115AC
:1002D00029F00F90DF91CF910C9451010F90DF9195
:1002E000CF910895809167008C5586BF08959091B5
:1002F0006000911113C080936200109261006093BE
:10030000650070936600409364001092630081E082
:10031000809360000E94720181E0089580E008955A
:10032000809167008C5686BF0895880F862B83B90D
:10033000809167008C5786BF089583B980916700CC
:100340008C5786BF089580916000089581B1887FA1
:10035000803309F47CC068F5883181F050F488302E
:1003600009F45AC0803109F457C0809167008C5756
:1003700062C0803209F46BC08832B9F781E08093A3
:1003800068009091630080916400981708F03FC066
:1003900080916300E0916500F0916600E80FF11D27
:1003A00080810E949D01809163008F5F8093630034
:1003B0000895883409F44BC080F4883309F447C0A9
:1003C000803499F681E080936800809164008130E8
:1003D00049F580E00E94480128C0803531F681E06F
:1003E0008093680080916300E0916500F091660061
:1003F000E80FF11D83B18083809163008F5F80934C
:1004000063009091630080916400981316C00E946D
:1004100090011092600008956091610080916200E7
:100420000C94950186B7806486BF9091670086B76B
:100430009C578074892B86BF08952091630080911A
:1004400064008150990B2817190679F7C2CF1092D2
:100450006800DDCF1F920F920FB60F9211242F93D9
:100460003F934F935F936F937F938F939F93AF933C
:10047000BF93EF93FF930E94A601FF91EF91BF916D
:10048000AF919F918F917F916F915F914F913F912C
:100490002F910F900FBE0F901F901895A1E21A2E6A
:1004A000AA1BBB1BFD010DC0AA1FBB1FEE1FFF1F18
:1004B000A217B307E407F50720F0A21BB30BE40B68
:1004C000F50B661F771F881F991F1A9469F76095AF
:1004D0007095809590959B01AC01BD01CF01089569
:1004E000DC0101C06D9341505040E0F70895F8944D
:0204F000FFCF3C
:00000001FF
